{
  "_format": "hh-sol-artifact-1",
  "contractName": "MockEthUsdConsumerV3",
  "sourceName": "contracts/mocks/mockEthUsdConsumerV3.sol",
  "abi": [
    {
      "inputs": [],
      "stateMutability": "nonpayable",
      "type": "constructor"
    },
    {
      "inputs": [],
      "name": "getLatestPrice",
      "outputs": [
        {
          "internalType": "int256",
          "name": "",
          "type": "int256"
        }
      ],
      "stateMutability": "view",
      "type": "function"
    }
  ],
  "bytecode": "0x608060405234801561001057600080fd5b50735f4ec3df9cbd43714fe2740f5e3616155c5b84196000806101000a81548173ffffffffffffffffffffffffffffffffffffffff021916908373ffffffffffffffffffffffffffffffffffffffff16021790555060bb806100736000396000f3fe6080604052348015600f57600080fd5b506004361060285760003560e01c80638e15f47314602d575b600080fd5b60336047565b604051603e9190606c565b60405180910390f35b600080600190508091505090565b6000819050919050565b6066816055565b82525050565b6000602082019050607f6000830184605f565b9291505056fea2646970667358221220d1e1fafa1777545ac87ba5fe092f5387d6346d1723d47545a8114718c9cfea8464736f6c63430008110033",
  "linkReferences": {},
  "deployedLinkReferences": {}
}